:020000040800F2
:1000000078090020310F0008050D0008070D0008D1
:100010000B0D00080F0D0008130D00080000000074
:10002000000000000000000000000000170D0008A4
:10003000190D0008000000001B0D00081D0D000830
:100040004B0F00084B0F00084B0F00084B0F000828
:100050004B0F00084B0F0008A5160108D116010828
:100060004B0F00084B0F00084B0F00084B0F000808
:100070004B0F00084B0F00084B0F00084B0F0008F8
:100080004B0F00084B0F00084B0F00084B0F0008E8
:100090004B0F00084B0F00084B0F00084B0F0008D8
:1000A0004B0F00087B1201084B0F0008EB120108F0
:1000B000FB3700084B0F00084B0F00084B0F0008E0
:1000C0004B0F00084B0F00084B0F00084B0F0008A8
:1000D0004B0F0008AD3400085F35000803360008F8
:1000E0004B0F00084B0F00084B0F00084B0F000888
:1000F0004B0F00084B0F00084B0F00084B0F000878
:100100004B0F00084B0F00084B0F00084B0F000867
:100110004B0F00084B0F00084B0F0008C5370008B5
:100120004B0F00084B0F00084B0F00084B0F000847
:100130004B0F00084B0F00084B0F00084B0F000837
:100140004B0F00084B0F00084B0F00084B0F000827
:100150004B0F00084B0F00084B0F00084B0F000817
:100160004B0F00084B0F00084B0F00084B0F000807
:100170004B0F00084B0F00084B0F00084B0F0008F7
:100180004B0F00084B0F000800F002F800F041F898
:100190000AA090E8000C82448344AAF10107DA45E2
:1001A00001D100F036F8AFF2090EBAE80F0013F0F3
:1001B000010F18BFFB1A43F001031847744B0100ED
:1001C000944B0100103A24BF78C878C1FAD852077E
:1001D00024BF30C830C144BF04680C6070470000C1
:1001E0000023002400250026103A28BF78C1FBD840
:1001F000520728BF30C148BF0B607047782911F003
:10020000C182002070471FB513F0A9F81FBD10B5BB
:1002100010BD11F081FB1146FFF7F5FF00F008F863
:1002200011F09FFB03B4FFF7F2FF03BC03F03CF8AF
:100230001CB500260025A846002400274FF4A06026
:1002400000F096FE0020FD490870A82002F0AAFFE9
:100250004FF4165003F036F809F00CFB10F080FF55
:1002600004F039FB08F0C3F903F016FC10F098FF16
:1002700010F0F2FD09F042FE09F05CFE11F048F9C1
:1002800009F078FE0721EE4802F0ADF909F0D4FD3F
:1002900042F2CF01632003F067FA11F059F9FDE350
:1002A00011F0B2F806464FF00008002600255CE089
:1002B000E4A010210B46C822CDE900105100E62031
:1002C00008F062F911F0A0F80646622E31D003DC86
:1002D0003EB1222E3AD120E0A82E10D0C22E35D128
:1002E00000E033E0DAA010210B46C822CDE900106F
:1002F0005100E62008F048F94FF0010826E0D7A0A9
:1003000010210B46C822CDE900105100E62008F06C
:100310003BF90DB1681EC5B218E0D3A010210B4601
:10032000C822CDE900105100E62008F02DF9002583
:100330000CE0D0A010210B46C822CDE900105100DE
:10034000E62008F021F9681CC5B200BF00BF1020EC
:1003500004232A464FF4A07100904FF4947008F0E3
:100360006AF8B8F1000F00D000E0A1E700BF4FF03D
:100370000008002652E011F047F80646622E31D000
:1003800003DC3EB1222E3AD120E0A82E10D0C22E9E
:1003900035D100E033E0BAA010210B46C822CDE9E8
:1003A00000105100E62008F0EFF84FF0010826E0B9
:1003B000B6A010210B46C822CDE900105100E6205E
:1003C00008F0E2F80CB1601EC4B218E0A6A010213B
:1003D0000B46C822CDE900105100E62008F0D4F801
:1003E00000240CE0ABA010210B46C822CDE9001080
:1003F0005100E62008F0C8F8601CC4B200BF00BF7E
:100400001020042322464FF4AA7100904FF49470F8
:1004100008F011F8B8F1000F00D000E0ABE700BF22
:10042000002705E04FF47A6002F01EFF781C07B247
:10043000142FF7DB09F000FD0A2D7DD2DFE805F06F
:1004400005D3FCFBFAF9F8F7F6F50A2C0AD2DFE837
:1004500004F0050A15202B9DA1A4C2C5B3EE0E0A17
:100460000AF03DFCBDE00AF0C1F98C48006808B90B
:10047000012000E0002089490860B2E00AF019FA82
:100480008648006808B9012000E000208349086020
:10049000A7E009F085FD8148006808B9012000E067
:1004A00000207E4908609CE06DE0002710F0ACFF62
:1004B0000646682E0ED006DC102E5FD0182E47D0D0
:1004C000302E5DD139E07A2E4DD0982E09D0B02E45
:1004D00056D10DE0012009F021FC00206F49086091
:1004E0004EE0002009F01AFC01206C49086047E04A
:1004F000002009F013FC47F2305002F0B5FE8021D5
:10050000674801F013FA00206449091D086042F2AF
:10051000107002F0A9FE42F2107002F0A5FE42F245
:10052000107002F0A1FE80215D4801F001FA012067
:100530005C49C1F8A80223E00EE240F29E715A48DD
:1005400002F04FF840F69671574802F04CF817E069
:1005500040F69671544802F044F840F6B8315248DB
:1005600002F041F80CE040F696714F4802F039F87D
:1005700040F696714C4802F036F800BF012700BFE4
:1005800000BF07B100E090E700BF2AE020460DF071
:1005900012FF26E00EF04AFF23E09FED441ADFED44
:1005A000440A9FED430A0AF013F84248D0ED0C0AC2
:1005B000B0EE600A09F015FC3E48D0ED0D0AB0EE31
:1005C000600A09F0E3FB3B48D0ED0E0AB0EE600A8A
:1005D00009F0B1FB05E010F033F902E010F0CBFBBD
:1005E00000BF00BF7EE3012009F098FB9FED321AA7
:1005F000F1EE020A9FED2E0A0BF00AFF0AF0B8F99D
:1006000000B16FE3012009F089FB9FED290A0AF090
:1006100066FB20460EF021FA264890ED000AB5EE62
:10062000C00AF1EE10FA4EDD48E0D3E2C4E2BFE2C8
:1006300023E2A3E156E1B4E056E000000000002010
:10064000000C00406368656E6778753A0000000032
:100650007169753A20202020000000006368656EF3
:100660006778752D00000000636C656172202020A2
:10067000000000006368656E6778752B000000005D
:100680007374617274202020000000007169752D60
:10069000000000007169752B00000000A482424236
:1006A0000018024000804242004001400000C84261
:1006B00000000000D402002000009B439FEDFE0AD2
:1006C0000AF00DFB03E09FEDFD0A0AF008FB0AF0BB
:1006D0004FF900B106E31FED0A1A5FED0B0A9FED1B
:1006E000F80A0BF095FEFDE2012009F017FB1FED63
:1006F000101AF0EE080A1FED120A0BF089FE0FF037
:10070000AEFBF048007808B10FF043FC20460EF035
:10071000A4F99FEDEA0A0AF0E2FA0AF029F900B119
:10072000E0E2012009F0FAFAE6480078012803D156
:100730009FEDE50A0AF0D3FAE2480178012010F0B3
:100740003BFC20460EF089F9E04890ED011AF7EEE7
:10075000001A31EE611AF0EE410A90ED001AB0EE87
:10076000410A1FED2D1A0BF053FE0AF001F900B1FA
:10077000B8E29FEDD70AD54880ED100A90ED010A46
:10078000F0EE400A1FED361A1FED370A0BF040FE5F
:100790001FED391ADFEDCA0A9FEDC90A0BF038FECA
:1007A000A0E2012009F0BAFA1FED3F1ADFEDC90AF5
:1007B0001FED410A09F0C1FDC448D0ED0C0AB0EEAE
:1007C000600A09F00EFBC148D0ED0D0AB0EE600AD8
:1007D00009F0DCFABD48D0ED0E0AB0EE600A09F06F
:1007E000AAFA49F6404002F03FFD9FEDBB1AF0EE39
:1007F000000A9FEDBA0A0BF00BFE20460EF02DF911
:10080000B24890ED011AF7EE001A31EE611AF0EEDF
:10081000410A90ED001AB0EE410A1FED5B1A0BF091
:10082000F7FD47F2305002F01FFD0AF0A1F800B1C9
:1008300058E2012009F072FAA44890ED011ADFEDA8
:10084000A81A31EE211AF0EE410A90ED001AB0EE2E
:10085000410A1FED691A0BF0DBFD9C4890ED010A7F
:10086000F0EE400A9FED9F1AB2EE010A0BF0D0FDA8
:100870009648D0ED000AB0EE600A9FED9A1AF0EEAD
:10088000000A0BF0C5FD0FF0F0FC904890ED011A46
:10089000F6EE001A31EE611AF0EE410A90ED001A00
:1008A000B0EE410AB3EE0E1A0BF0B2FD0AF060F89A
:1008B00000B117E29FED860A844880ED100A90EDA2
:1008C000010AF0EE400A1FED861A1FED870A0BF0B1
:1008D0009FFD1FED891A5FED8A0A1FED8B0A0BF051
:1008E00097FDFFE1012009F019FA9FED731AF1EE6F
:1008F0000C0AB2EE000A0BF08BFD0FF0A1FF0AF01C
:1009000037F800B1EEE1012009F008FA1FED981A5E
:10091000DFED750A1FED9A0A0BF07AFD0FF09FFAD2
:1009200068480078022803D19FED700A0AF0D7F9D1
:1009300020460EF092F86348007810F0BDFA9FED63
:100940005E1AF1EE0C0AB2EE000A0BF061FD0FF038
:1009500077FF0AF00DF800B1C4E11FEDAB1AF0EE1D
:10096000000A1FEDAD0A0BF053FD1FEDAF1A5FED4E
:10097000B00A9FED530A0BF04BFDB3E1012009F0E3
:10098000CDF91FEDB51AF0EE0C0A1FEDB70A0BF00A
:100990003FFD0FF064FA20460EF05FF849480078FA
:1009A000012803D19FED480A0AF099F945480078DB
:1009B00010F082FA9FED400A0AF091F99FED3E1A7D
:1009C000F1EE0C0AB2EE000A0CF087F90FF038FFD6
:1009D00009F0CEFF00B185E1012009F09FF99FEDFC
:1009E000430A0AF07CF99FED411ADFED410AB1EEAE
:1009F000020A0CF072F99FED380A0AF070F92046ED
:100A00000EF02BF8314890ED011AF6EE001A31EE97
:100A1000211AF0EE410A90ED001AB0EE410A9FED66
:100A20002E1A0BF0F5FC9FED241AF1EE0C0AB2EE33
:100A3000000A0BF0EDFC0FF003FF09F099FF00B185
:100A400050E12248D0ED000AB0EE600A1FEDE81A2E
:100A5000F0EE000A0BF0DCFC1FEDEB1AF0EE000AE2
:100A60001FEDED0A0BF0D4FC1FEDEF1A5FEDF00A5D
:100A70001FEDF10A0BF0CCFC34E1012009F04EF936
:100A80001FEDF51ADFED130A1FEDF70A09F055FC0B
:100A90000E48D0ED0C0AB0EE600A00E023E109F048
:100AA000A0F90A48D0ED0D0AB0EE600A09F06EF91F
:100AB0000648D0ED0E0A1DE0000087430000914378
:100AC000CDCCCCBD0000002000006143D40200204A
:100AD000CDCC4CBD0000C84300809D439A9979401D
:100AE0006666A63F00003443666686400000074302
:100AF00033333340B0EE600A09F01DF91FED0A1AD6
:100B0000DFED7A0AB1EE000A0BF082FC20460DF010
:100B1000A4FF774890ED011AF6EE001A31EE211A83
:100B2000F0EE410A90ED001AB0EE410A9FED711A05
:100B30000BF06EFC1FED201AF1EE0C0AB2EE000A6B
:100B40000BF066FC0FF07CFE09F012FF00B1C9E06B
:100B5000012009F0E3F81FED1D1AF0EE080AB2EECD
:100B6000030A0BF055FC0FF080FB1FED2D1AF1EE80
:100B70000C0AB2EE000A0BF04BFC0FF061FE09F01C
:100B8000F7FE00B1AEE09FED5B1AF0EE080A9FEDB4
:100B9000590A0BF03DFC47F2305002F065FB9FED27
:100BA000551ADFED550A9FED530A0BF031FC99E021
:100BB00001200DF052FF95E09FED501AF1EE0C0A66
:100BC0009FED4F0A0BF024FC0FF072FA20460DF057
:100BD00044FF00BF012009F0A1F89FED461A5FED28
:100BE000430A9FED440A09F0A8FB4148D0ED0C0AE6
:100BF000B0EE600A09F0F5F83D48D0ED0D0AB0EE10
:100C0000600A09F0C3F83A48D0ED0E0AB0EE600A67
:100C100009F091F844F6206002F026FB1FED521A0D
:100C2000F0EE000A1FED530A0BF0F2FB47F23050D2
:100C300002F01AFB47F2305002F016FB2C4890ED00
:100C4000011AF7EE001A31EE611AF0EE410A90ED4A
:100C5000001AB0EE410A9FED271A0BF0D9FB47F2BC
:100C6000305002F001FB47F2305002F0FDFA012053
:100C700009F054F81FED651AF0EE080AB2EE060A04
:100C80000BF0C6FB47F2305002F0EEFA47F230505C
:100C900002F0EAFAB3EE0E0A0AF021F847F23050F9
:100CA00002F0E2FA47F2305002F0DEFA1FED780A65
:100CB0000F4880ED100A90ED010AF0EE400A9FED1A
:100CC0000D1A9FED0C0A0BF0A3FB47F2305002F017
:100CD000CBFA9FED081ADFED070A9FED060A0BF02D
:100CE00097FB00BF00BFFFF7DBBA0000CDCC0C4084
:100CF000D402002000000000CDCC4CBE0000B44265
:100D000066662640704700BFFEE700BFFEE700BFF3
:100D1000FEE700BFFEE7704770477047704700006E
:100D20000CB50020019000907648006840F48030B7
:100D30007449086000BF7348006800F400300090F8
:100D40000198401C0190009818B90198B0F5A04F87
:100D5000F1D16C48006800F4003010B1012000901F
:100D600001E0002000900098012846D165484030FD
:100D7000006840F080506349403108606248006874
:100D800040F44040604908605E48083000685D49B2
:100D9000083108600846006840F4004008600846D2
:100DA000006840F4A05008605848091F0860081FF8
:100DB000006840F08070091F086000BF514800685B
:100DC00000F000700028F9D040F20570504908602A
:100DD0004C480830006820F003004A490831086098
:100DE0000846006840F00200086000BF454808302F
:100DF000006800F00C000828F8D10CBD10B545487B
:100E0000006840F47000434908603E48006840F0C4
:100E100001003C49086000203A490831086039481F
:100E200000683D490840374908603C48091D086092
:100E3000081F006820F48020091F08600020314945
:100E40000C310860FFF76CFF4FF0006031498039CA
:100E5000086010BD70B5002000220223002402218A
:100E6000284D08352D6805F00C0020B1042806D067
:100E7000082834D107E02A4D2A4E356033E02A4D48
:100E8000284E35602FE01F4D2D1D2D68C5F3805471
:100E90001C4D2D1D2D6805F03F0154B1224DB5FBB1
:100EA000F1F5184E361D3668C6F3881605FB06F2B6
:100EB00009E01B4DB5FBF1F5124E361D3668C6F341
:100EC000881605FB06F20F4D2D1D2D68C5F3014553
:100ED0006D1C6B00B2FBF3F5124E356003E0104D54
:100EE000104E356000BF00BF064D08352D68C5F3B4
:100EF00003150E4E705D0B4D2D68C540094E3560D3
:100F000070BD0000003802400070004008544007E7
:100F1000003C024088ED00E0FFFFF6FE10300024A8
:100F20000024F4000400002000127A0008000020D1
:100F30000948804709480047FEE7FEE7FEE7FEE76D
:100F4000FEE7FEE7FEE7FEE7FEE7FEE704480549A9
:100F5000054A064B70470000FD0D00088901000896
:100F6000780300207809002078050020780500200B
:100F700032490143324A1160704770B500210023A5
:100F80000F22C4781CB32E4C246804F4E064C4F52A
:100F9000E064C4F30721C1F10404E3B20A414478D8
:100FA0009C40E1B28478144021430C07210E254C6B
:100FB00005786155047804F01F050124AC400578DC
:100FC0006D11AD0005F1E025C5F8004109E0047898
:100FD00004F01F050124AC401B4D0678761145F83E
:100FE000264070BD194A0A400243154B1B1F1A6068
:100FF000704739B1124A121D12680243104B1B1D73
:101000001A6006E00E4A121D126882430C4B1B1D2B
:101010001A607047042808D14FF0E021096941F0B7
:1010200004014FF0E022116107E04FF0E02109696F
:1010300021F004014FF0E022116170470000FA0531
:101040000CED00E000E400E080E100E080FFFF1F25
:10105000002041490860091D0860091D0860091D3C
:1010600008603E483C4914310860704700213A4905
:101070008279002A3AD00A46126803689A430B46DE
:101080001A600A1D126803689A430B1D1A600279E0
:1010900011440A6803681A430A602F4A083212682A
:1010A00003689A432C4B08331A601A1D12680368B0
:1010B0009A43294B0C331A604279102A0ED11A1F19
:1010C000126803681A43244B08331A601A1D126809
:1010D00003681A43204B0C331A600DE01E49427915
:1010E00011440A6803681A430A6005E00279114452
:1010F0000A6803689A430A60704700210160017121
:101100000C21417100218171704713491031096828
:101110000143114A103211607047014600200E4A07
:10112000143212680A400AB1012000E00020704722
:10113000094914310860704701460020064A1432FC
:1011400012680A400AB1012000E0002070470249FD
:101150001431086070470000003C0140FFFF7F0031
:1011600030B943F2DB028100A1F1C0410A6005E021
:1011700043F2D2028100A1F1C0410A606FF07042D7
:10118000411C8900A1F1C0410A608100A1F1C04168
:10119000C1F804217047D0E901121143C26811431C
:1011A000026911434269114382691143C2691143C3
:1011B000026A1143426A1143826A1143C26A1143AF
:1011C000026B114302689200A2F1C0421160816873
:1011D00008290BD101688900A1F1C041096841F0DB
:1011E000400201688900A1F1C0410A60416B0968B1
:1011F000426B526841EA0211426B926841EA022155
:10120000426B928941EA0241426B128A41EA0251E1
:10121000426B127D41EA0261426B9269114302689E
:10122000521C9200A2F1C0421160C16AB1F5804F18
:101230001BD1816B0968826B526841EA0211826B93
:10124000926841EA0221826B128A41EA0251826B62
:10125000127D41EA0261826B926911430268920039
:10126000A2F1C042C2F8041107E06FF070420168B9
:101270008900A1F1C041C1F804217047002101603B
:101280000221416000218160C16001614161816191
:10129000C16101624FF480514162490081620021C5
:1012A000C1620163F84941638163704751B18200B3
:1012B000A2F1C042126842F001038200A2F1C042D2
:1012C000136009E08200A2F1C0421268EF4B1A409D
:1012D0008300A3F1C0431A60704710280AD1182177
:1012E0004FF020421166402151664FF0FC3191666B
:1012F000D16610E01821E64A116040214FF02042EB
:10130000C2F884104FF0FC31E14A083211604FF00E
:101310002042C2F88C10704730B500210022002313
:10132000446844F0080485682C43C5682C4305696B
:101330002C43456944EA4524856944EA4531C4693A
:101340002468C5696D6844EA0524C5692D8944EAA5
:101350000544C5692D7B44EA0562046A2468056A70
:101360006D6844EA0524056A2D8944EA0544056A46
:101370002D7B44EA05630468102C05D14FF020440E
:101380002166A266E36608E0C14C21604FF020446C
:10139000C4F88820BE4C0C34236030BD102101609D
:1013A000002141608160C160016141618161FC2176
:1013B000C2691160C2695160C2699160C269D1603D
:1013C000026A1160026A5160026A9160026AD16029
:1013D000704799B1102808D14FF02042126E42F0A8
:1013E00004024FF020431A661DE0A94A126842F039
:1013F00004024FF02043C3F8802014E0102809D1E4
:101400004FF02042126EA14BDB1E1A404FF02043DA
:101410001A6608E09E4A12689C4BDB1E1A404FF089
:101420002043C3F88020704799B1102808D14FF0AD
:101430002042126E42F040024FF020431A661DE037
:10144000934A126842F040024FF02043C3F88020D4
:1014500014E0102809D14FF02042126E8B4B3F3B15
:101460001A404FF020431A6608E0894A1268874BF9
:101470003F3B1A404FF02043C3F88020704701469D
:101480000020102903D14FF02042506F02E0804A23
:1014900014321068704718207D4920310860002000
:1014A0000906C1F8A4004FF0FC30794928310860E2
:1014B000091D0860091D08607047016841F01001AE
:1014C000426841EA4221826841EA4231704A203250
:1014D0001160C1680968C268526841EA0221C268A5
:1014E000128941EA0241C268127B41EA0261684AFC
:1014F00028321160016909680269526841EA0221D3
:101500000269128941EA02410269127B41EA0261E1
:101510005F4A2C321160416909684269526841EAA8
:1015200002214269128941EA02414269127B41EA81
:1015300002614FF02042C2F8B010704700210160F4
:1015400041608160FC21C2681160C2685160C2685C
:101550009160C268D16002691160026951600269DC
:1015600091600269D16042691160426951604269CB
:1015700091604269D160704748B14549203109689E
:1015800041F004014FF02042C2F8A01009E04049A8
:10159000203109683D4AD21E11404FF02042C2F866
:1015A000A010704710B5F2B1102807D14FF02043BA
:1015B0005B6E0B434FF02044636632E0B0F5807FF2
:1015C00008D1334B1B1D1B680B434FF02044C4F85C
:1015D000843026E02E4B24331B680B434FF020440D
:1015E000C4F8A4301DE0102807D14FF020435B6EF3
:1015F0008B434FF02044636613E0B0F5807F08D141
:10160000234B1B1D1B688B434FF02044C4F88430D0
:1016100007E01F4B24331B688B434FF02044C4F872
:10162000A43010BD10B5024600200023102A03D1BB
:101630004FF02044636E09E0B2F5807F03D1144C73
:10164000241D236802E0124C2434236803EA0104B9
:101650000CB1012000E0002010BD102807D14FF090
:101660002042526E8A434FF020435A6619E0B0F58B
:10167000807F0FD1064A121D12688A434FF0204323
:10168000C3F884200DE0000074330108FEFF0F0052
:10169000800000A0234A12688A434FF02043C3F819
:1016A000A420704770B502460020002300240025C6
:1016B000102A03D14FF02046736E08E0B2F5807F08
:1016C00003D1184E203E336801E0164E336803EA1A
:1016D000010403EAD10514B10DB1012000E000209E
:1016E00070BD102808D14FF02042526E22EAD1027C
:1016F0004FF020435A6614E0B0F5807F09D1094AC3
:10170000203A126822EAD1024FF02043C3F8842025
:1017100007E0044A126822EAD1024FF02043C3F8DE
:10172000A4207047A40000A010B504469848844245
:1017300008D10121084600F086FB0021012000F0BD
:1017400082FB76E09348844208D10121022000F018
:101750007AFB0021022000F076FB6AE08E4884428A
:1017600008D10121042000F06EFB0021042000F0CC
:101770006AFB5EE08948844208D10121082000F01C
:1017800062FB0021082000F05EFB52E084488442A6
:1017900008D10121102000F056FB0021102000F09C
:1017A00052FB46E07F48844208D10121202000F00E
:1017B0004AFB0021202000F046FB3AE07A488442B0
:1017C00008D10121402000F03EFB0021402000F024
:1017D0003AFB2EE07548844208D10121802000F0B8
:1017E00032FB0021802000F02EFB22E07048844272
:1017F00008D10121801500F026FB0021A01500F082
:1018000022FB16E06B48844208D10121401500F00C
:101810001AFB0021601500F016FB0AE066488442BE
:1018200007D10121001500F00EFB0021201500F06A
:101830000AFB10BDF0B50A4600210023002400BFBA
:101840003DE0012505FA01F3156805EA03049C4211
:1018500034D105684F000326BE40B54305601579B5
:101860004E00B5400668354305601579012D02D05C
:101870001579022D16D185684F000326BE40B54369
:10188000856055794E00B54086683543856045686A
:1018900001268E40B5434560456896798E40B6B2C4
:1018A00035434560C5684F000326BE40B543C5605B
:1018B000D5794E00B540C6683543C560491C10292E
:1018C000BFD3F0BD4FF6FF7101600021017141717E
:1018D0008171C171704708B54FF480320092009A4F
:1018E0000A430092009AC261C161009AC261C26952
:1018F0000092C269009208BD0246002013690B40A5
:101900000BB1012000E0002070470146086980B259
:1019100070470246002053690B400BB1012000E0E4
:10192000002070470146486980B2704701837047C4
:10193000418370470AB1018300E0418370474161F0
:10194000704742694A4042617047F0B50023002465
:101950004D07ED0E02FA05F3CE1000F1200555F803
:1019600026504E07F70E0F26BE40B543CF1000F1AC
:10197000200646F82750CE1000F1200555F82650D5
:1019800045EA0304CE1000F1200545F82640F0BDDD
:10199000000002400004024000080240000C024027
:1019A000001002400014024000180240001C0240D7
:1019B000002002400024024000280240F94800684C
:1019C00040F00100F74908600020F649083108603E
:1019D000F4480068F4490840F2490860F348091DDA
:1019E0000860F348EF4984310860F0481038091D59
:1019F0000860EC48006820F48020EA490860002074
:101A0000E8490C310860E7498C31086070470021D3
:101A1000E44A921C117011460870704710B50146D7
:101A20000022002300204A11012A02D1DD4C236844
:101A300008E0022A03D1DB4C7034236802E0D94C61
:101A40007434236801F01F02012494401C400CB13F
:101A5000012000E0002010BD38B5002000900024D7
:101A6000002500BF3120FFF7D9FF05460098401C34
:101A700000900098B0F5A04F01D0002DF2D0312099
:101A8000FFF7CCFF08B1012400E00024204638BD58
:101A900001460020C34A106820F0F80040EAC10067
:101AA00010607047C349086070470021BD4A70321A
:101AB00011701170012802D004280AD104E001211C
:101AC000B84A7032117005E00521B64A70321170C3
:101AD00000E000BF00BF7047B7490860704770B5AD
:101AE000049C41EA82150126C6EB530645EA0645E9
:101AF000054345EA0465AB4E361D356070BDAD4902
:101B000008667047820142EA0172A64B84331A606C
:101B10007047A8498866704710B5830143EA01639E
:101B200043EA02739F4C8834236010BDA1490867C3
:101B30007047A049C864704702460020994B08339B
:101B4000186820F0EC6042EA01031843954B083313
:101B50001860704702460020924B0833186820F046
:101B6000784042EA010318438E4B083318607047EF
:101B7000014600208B4A0832106820F00300084319
:101B80001060704787480830006800F00C0070470C
:101B900001460020834A0832106820F0F000084314
:101BA00010607047014600207E4A0832106820F419
:101BB000E05008431060704701460020794A08321F
:101BC000106820F4604040EAC10010607047F0B532
:101BD000002100220024022500260223714F08372D
:101BE0003F6807F00C0121B1042905D0082937D13D
:101BF00005E0724F076036E0714F076033E0694FD0
:101C00003F1D3F68C7F38056664F3F1D3F6807F092
:101C10003F036EB16A4FB7FBF3F7DFF888C10CF1F1
:101C2000040CDCF800C0CCF3881C07FB0CF40CE0BF
:101C3000624FB7FBF3F7DFF86CC10CF1040CDCF872
:101C400000C0CCF3881C07FB0CF4564F3F1D3F68C7
:101C5000C7F301477F1C7D00B4FBF5F7076002E086
:101C6000564F076000BF00BF4E4F08373F6807F070
:101C7000F0010909534F7A5C0768D7404760494F24
:101C800008373F6807F4E051890A4E4F7A5C47688D
:101C9000D7408760434F08373F6807F46041490BDE
:101CA000484F7A5C4768D740C760F0BD002100F418
:101CB0004072B2F5407F0AD13A4A0832116821F4E5
:101CC000F811414A02401143364A08321160354A40
:101CD00070321268C0F30B031A43324B70331A6030
:101CE00070473549443908607047334940390860C6
:101CF000704736490860704701460020294A8C32F7
:101D0000106820F01F004A1E1043264A8C321060D3
:101D1000704701460020234A8C32106820F4F850A6
:101D20004A1E40EA02201F4A8C321060704701466A
:101D300000201C4A8C32106820F4401008431060C8
:101D4000704701460020174A8C32106820F440008A
:101D500008431060704701460020124A8C32106818
:101D600020F44030084310607047194908607047FC
:101D700039B10C4A3032126802430A4B30331A60D0
:101D800006E0084A303212688243064B30331A604C
:101D90007047F9B1034A343212680243014B3433BD
:101DA0001A601CE000380240FFFFF6EA1030002401
:101DB0000030002000004742800E47420024F4001B
:101DC00000127A0018000020FFFCFF0F5C01474260
:101DD000E01147428F4A126882438E4B1A60704767
:101DE00039B18C4A121D126802438A4B1B1D1A60BE
:101DF00006E0884A121D12688243864B1B1D1A603A
:101E0000704739B1834A0C3212680243814B0C335C
:101E10001A6006E07F4A0C32126882437D4B0C3315
:101E20001A60704739B17B4A103212680243794B0D
:101E300010331A6006E0774A103212688243754BFD
:101E400010331A60704739B1724A243A126802435B
:101E5000704B243B1A6006E06E4A243A12688243B3
:101E60006C4B243B1A60704739B16A4A203A1268B9
:101E70000243684B203B1A6006E0664A203A12682B
:101E80008243644B203B1A60704739B1614A1C3A67
:101E9000126802435F4B1C3B1A6006E05D4A1C3A25
:101EA000126882435B4B1C3B1A60704739B1594A38
:101EB000143A12680243574B143B1A6006E0554A25
:101EC000143A12688243534B143B1A60704739B17D
:101ED000504A103A126802434E4B103B1A6006E01B
:101EE0004C4A103A126882434A4B103B1A607047C2
:101EF00039B1484A1C3212680243464B1C331A60FF
:101F000006E0444A1C3212688243424B1C331A607A
:101F1000704739B13F4A2032126802433D4B2033AB
:101F20001A6006E03B4A203212688243394B203364
:101F30001A60704739B1374A243212680243354B70
:101F400024331A6006E0334A243212688243314B4C
:101F500024331A60704739B12E4A2C32126802437A
:101F60002C4B2C331A6006E02A4A2C32126882432A
:101F7000284B2C331A60704739B1264A3032126828
:101F80000243244B30331A6006E0224A3032126892
:101F90008243204B30331A607047012808D11D4915
:101FA0003C31096841F008011A4A3C32116007E0EF
:101FB00018493C31096821F00801164A3C32116089
:101FC000704739B1134A273A12780243114B273B25
:101FD0001A7006E00F4A273A127882430D4B273BCE
:101FE0001A7070470B484030006840F08070094913
:101FF00040310860704701460020064A283A1268BE
:102000000A400AB1012000E000207047014926394A
:10201000087070473438024010B501218803FFF77B
:1020200056FF00214FF48040FFF751FF10BD1C49BF
:10203000086070471B490862704730B500228B0763
:102040001C0F0F2303FA04F2154B08338C1053F8BE
:1020500024309343124C08348D1044F82530234625
:102060008C1053F824308C07240F00FA04F4234317
:102070000B4C08348D1044F8253030BD0949DC3153
:102080000860704708490860704700200449203103
:10209000096801F4807109B1012000E00020704757
:1020A00000380140000027420004274210B50446D2
:1020B000FE48844208D101210846FFF708FF0021AD
:1020C0000120FFF704FF9DE0B4F1804F08D101210A
:1020D0000846FFF7EBFE00210120FFF7E7FE91E045
:1020E000F348844208D101210220FFF7DFFE0021DE
:1020F0000220FFF7DBFE85E0EE48844208D1012193
:102100000420FFF7D3FE00210420FFF7CFFE79E083
:10211000E948844208D101210820FFF7C7FE0021C9
:102120000820FFF7C3FE6DE0E448844208D1012196
:102130001020FFF7BBFE00211020FFF7B7FE61E083
:10214000DF48844208D101212020FFF7AFFE0021A3
:102150002020FFF7ABFE55E0DA48844208D1012188
:102160000220FFF7B4FE00210220FFF7B0FE49E095
:10217000D548844209D101210804FFF7A8FE0021B7
:102180004FF48030FFF7A3FE3CE0D048844209D1F1
:1021900001214804FFF79BFE00214FF40030FFF7B8
:1021A00096FE2FE0CA48844209D101218804FFF736
:1021B0008EFE00214FF48020FFF789FE22E0C54803
:1021C000844208D101214020FFF770FE0021402009
:1021D000FFF76CFE16E0C048844208D10121802040
:1021E000FFF764FE00218020FFF760FE0AE0BB4895
:1021F000844207D101218015FFF758FE0021A01568
:10220000FFF754FE10BD00220288A84B98420ED062
:10221000AC4B98420BD0B0F1804F08D0A44B984201
:1022200005D0A44B984202D0A34B984204D14FF65C
:102230008F731A404B881A43A04B984207D0A04B8B
:10224000984204D04FF6FF431A400B891A4302808C
:102250004B68C3620B880385944B984202D0994B1C
:10226000984201D18B7A03860123838270474FF015
:10227000FF314160002101800181418081727047FE
:102280000185828270470A46002101884FF68F73CC
:10229000194011430180704741627047C162704725
:1022A0000146486A70470146088D704721B102888F
:1022B00042F00202028004E002884FF6FD731A40E9
:1022C0000280704721B1028842F00402028004E0DB
:1022D00002884FF6FB731A400280704721B10288D2
:1022E00042F08002028004E002884FF67F731A40B9
:1022F0000280704702884FF6F7731A400280028806
:102300000A430280704702884FF6FF431A4002805A
:1023100002880A430280704721B1028842F001021C
:10232000028004E002884FF6FE731A400280704774
:1023300070B5002400220023058C4FF6FE76354050
:102340000584028C8388048B4FF68F752C40B51E54
:102350002C400D882C43751E2A408D892A434D88B8
:102360002A43524DA84202D0564DA84213D14FF6EF
:10237000F7752A40CD892A434FF6FB752A408D8890
:102380002A434FF6FF652B404FF6FF552B400D8A31
:102390002B434D8A2B43838004838D6845630284DD
:1023A00070BD70B5002400220023058C4FF6EF7637
:1023B00035400584028C8388048B48F6FF752C40D9
:1023C0004FF6FF452C400D884FF6FF7606EA0525AF
:1023D0002C434FF6DF752A408D8906EA05152A43FE
:1023E0004D8806EA05152A43304DA84202D0354DE6
:1023F000A8421DD14FF67F752A40CD894FF6FF7652
:1024000006EA05152A434FF6BF752A408D8806EA6D
:1024100005152A434FF6FF352B404FF2FF752B4031
:102420000D8A06EA85052B434D8A06EA85052B436E
:10243000838004838D688563028470BD70B5002439
:1024400000220023058C4FF6FF6635400584028C80
:102450008388848B4FF68F752C404FF6FC752C408B
:102460000D882C434FF6FF552A408D894FF6FF7695
:1024700006EA05252A434D8806EA05252A430B4D21
:10248000A84202D00F4DA84238D14FF2FF752A4022
:10249000CD894FF6FF7606EA05252A434FF6FF352C
:1024A0002A408D8806EA05252A4319E000000140EC
:1024B0000004004000080040000C004000100040F4
:1024C000001400400004014000400140004401406D
:1024D0000048014000180040001C0040002000405F
:1024E0004EF6FF752B404DF6FF752B400D8A06EA20
:1024F00005152B434D8A06EA05152B4383808483FB
:102500008D68C563028470BD70B50022002300246D
:10251000058C4EF6FF7635400584038C8488828BCB
:1025200048F6FF752A404FF6FF452A400D884FF6C2
:10253000FF7606EA05252A434DF6FF752B408D8967
:1025400006EA05352B434D8806EA05352B43FE4D3B
:10255000A84202D0FD4DA84208D14BF6FF752C4091
:102560000D8A4FF6FF7606EA85152C438480828318
:102570008D680564038470BD0021018041808180E5
:1025800081608181C18101824182704770B50346BB
:10259000002000241846183001258D40ACB21D8C57
:1025A000A5431D8409B108290AD100EB6100056823
:1025B0004FF68F76354005600568154305600FE0DE
:1025C0000D1FC5F34E052844056848F6FF763540D3
:1025D000056005684FF6FF7606EA0226354305607A
:1025E00070BD4163704781637047C1637047016488
:1025F00070470A460021018B4FF68F731940114333
:10260000018370470A460021018B48F6FF73194089
:102610004FF6FF7303EA02231943018370470A460A
:102620000021818B4FF68F731940114381837047CE
:102630000A460021818B48F6FF7319404FF6FF735D
:1026400003EA02231943818370470A460021018B64
:102650004FF6F77319401143018370470A46002172
:10266000018B4FF2FF7319404FF6FF7303EA022309
:102670001943018370470A460021818B4FF6F77397
:1026800019401143818370470A460021818B4FF224
:10269000FF7319404FF6FF7303EA02231943818346
:1026A00070470A460021018B4FF6FB731940114316
:1026B000018370470A460021018B4FF6FF33194012
:1026C0004FF6FF7303EA02231943018370470A465A
:1026D0000021818B4FF6FB731940114381837047B2
:1026E0000A460021818B4FF6FF3319404FF6FF73E6
:1026F00003EA02231943818370470A460021018BB4
:102700004FF67F7319401143018370470A46002139
:10271000018BC1F30E014FF6FF7303EA0223194345
:10272000018370470A460021818B4FF67F73194061
:102730001143818370470A460021818BC1F30E014A
:102740004FF6FF7303EA02231943818370470A4659
:102750000021018C4FF6FD7319401143018470472D
:102760000A460021018C4FF6F7731940114301848A
:1027700070470A460021018C4FF6DF7319404FF66F
:10278000FF7303EA02131943018470470A460021CC
:10279000018C4FF67F7319404FF6FF7303EA021363
:1027A0001943018470470A460021018C4FF6FF53FC
:1027B00019404FF6FF7303EA02231943018470475F
:1027C0000A460021018C4FF2FF7319404FF6FF7348
:1027D00003EA02231943018470470A460021018C51
:1027E0004DF6FF7319404FF6FF7303EA02331943A6
:1027F0000184704730B5002301248C40A3B2048CBF
:102800009C430484048C02FA01F5ADB22C43048489
:1028100030BD30B5002304248C40A3B2048C9C430B
:102820000484048C02FA01F5ADB22C43048430BD5B
:10283000828B4FF2FF331A408283828B4FF6FF73F5
:1028400003EA01231A4382837047F0B50C4615460C
:10285000002100220026078C4EF6FF7C07EA0C07B9
:102860000784818B028C4FF6FF7707EA043640F627
:10287000FF4739404FF6FF7707EA052739434FF600
:10288000FF7707EA0337394345F6FF773A4046F4C6
:1028900080573A4381830284F0BD828B4FF6F373F5
:1028A0001A408283828B0A4382837047F0B50C46BC
:1028B0001546002100220026078C4FF6FF6C07EA20
:1028C0000C070784818B028C4FF6FF7707EA0426FA
:1028D0004FF60C7739404FF6FF7707EA03172F437F
:1028E00039434FF2FF573A4046F480773A438183A9
:1028F0000284F0BD028B4FF2FF331A400283028B39
:102900004FF6FF7303EA01231A4302837047F0B5C1
:102910000C461546002100220026078C4FF6EF7C5E
:1029200007EA0C070784018B028C4FF6FF7707EA52
:10293000041640F6FF4739404FF6FF7707EA0337A2
:1029400039434FF6FF7703E00000014000040140E7
:1029500007EA052739434FF65F773A4046F01007FC
:102960003A4301830284F0BD028B4FF6F3731A40A1
:102970000283028B0A4302837047F0B50C4615466A
:1029800000210022068C4FF6FE773E400684018B24
:10299000028C4FF60C7631407E1C06EA03162E435D
:1029A00031434FF6F576324044F00106324301835D
:1029B0000284F0BD70B505460C46208850B92389C5
:1029C000A28861882846FFF7D8FFE1882846FFF7EC
:1029D000CBFF25E0208804280AD12389A2886188BA
:1029E0002846FFF794FFE1882846FFF783FF17E0AA
:1029F000208808280AD12389A28861882846FFF701
:102A000055FFE1882846FFF748FF09E02389A2889F
:102A100061882846FFF719FFE1882846FFF708FF7D
:102A200070BD002101804180012181800021C18091
:102A3000018170472DE9F04105460C46002601272B
:102A4000608808B9022600E00026A088012801D18C
:102A5000022700E001272088A0B92389A288618885
:102A60002846FFF78AFFE1882846FFF77DFF238984
:102A70003A4631462846FFF74AFFE1882846FFF7E5
:102A800039FF13E02389A28861882846FFF73FFFBA
:102A9000E1882846FFF72EFF23893A46314628462B
:102AA000FFF76BFFE1882846FFF75EFFBDE8F08186
:102AB0000146486B70470146886B70470146C86BFA
:102AC00070470146086C70470A884B881A438B8808
:102AD0001A43CB881A430B891A434B891A438B89B3
:102AE0001A43A0F844207047002101804180818072
:102AF000C180018141818181704731B1B0F84420AA
:102B000042F40042A0F8442005E0B0F84420C2F3AB
:102B10000E02A0F84420704721B1828842F00402DE
:102B2000828004E082884FF6FB731A4082807047EF
:102B300021B1828842F00102828004E082884FF64F
:102B4000FE731A40828070471AB183890B438381D8
:102B500002E083898B4383817047818270470246FC
:102B60000020138A0B400BB1012000E000207047C9
:102B7000CA430282704730B5024600200023002479
:102B8000158A05EA0103958905EA010413B10CB120
:102B9000012000E0002030BDCA430282704741EAB4
:102BA0000203A0F8483070471AB183890B43838130
:102BB00002E083898B438381704721B1828842F090
:102BC0000802828004E082884FF6F7731A40828000
:102BD000704701894FF6F8721140018170470A462B
:102BE000002101894FF68F7319401143018170470D
:102BF00030B504460D4629462046FFF7F0FF2089F0
:102C000040F00700208130BD2DE9F04104460D461B
:102C100016461F46602D06D13B460122314620460E
:102C2000FFF775FE05E03B46012231462046FFF7DF
:102C3000A4FE29462046FFF7D2FF208940F0070076
:102C40002081BDE8F08130B50C4600210189C9B270
:102C50004FF6FF7505EA03251543254329430181F6
:102C600030BD2DE9F04105460E4617469846002432
:102C700043463A4631462846FFF7E5FF2C894FF692
:102C8000F870044044F007044FF68F70044044F09D
:102C900070042C81BDE8F081F0B504460D4616465F
:102CA0001F463B46324629462046FFF7CCFF208987
:102CB00040F480402081F0BD82884FF68F731A4027
:102CC000828082880A438280704702894FF6F873B7
:102CD0001A40028102890A430281704702894FF635
:102CE0007F731A40028102890A4302817047F0B55E
:102CF0000C4615461E460021002200230189028B46
:102D0000038C4FF6F877394021434FF6FC473A40A1
:102D100040F201173A434FF6DD773B404FF6FF771D
:102D200007EA06172F433B43018102830384F0BD6A
:102D300021B1828842F08002828004E082884FF6CE
:102D40007F731A4082807047A0F8501070470000CF
:102D500010B50446FA48844208D101211020FFF73B
:102D6000B6F800211020FFF7B2F857E0F54884428A
:102D700009D101214804FFF799F800214FF40030F0
:102D8000FFF794F84AE0F048844209D10121880411
:102D9000FFF78CF800214FF48020FFF787F83DE023
:102DA000EA48844209D10121C804FFF77FF80021D5
:102DB0004FF40020FFF77AF830E0E548844209D16B
:102DC00001210805FFF772F800214FF48010FFF78A
:102DD0006DF823E0DF48844208D101212020FFF76D
:102DE00076F800212020FFF772F817E0DA488442D5
:102DF00009D101218807FFF759F800214FF08040E1
:102E0000FFF754F80AE0D548844207D10121400574
:102E1000FFF74CF800216005FFF748F810BD2DE9D9
:102E2000FF4705460E460024A14600BFA046B089D4
:102E300000B100BF2C8A24F44054F08804432C8253
:102E4000AC8941F20C608443B088318908437189B0
:102E500008430443AC81AC8A24F44074B089044331
:102E6000AC826846FEF7B3FEB548854202D0B94849
:102E7000854202D1DDF80C9001E0DDF80890A889C8
:102E800000F4004040B109EBC90000EB09103168C3
:102E90004900B0FBF1F707E009EBC90000EB0910AE
:102EA00031688900B0FBF1F76420B7FBF0F0040152
:102EB0002009642101FB1078A88900F4004040B18A
:102EC000322000EBC800B0FBF1F000F00700044333
:102ED00008E0322000EB08106421B0FBF1F000F0B4
:102EE0000F0004432C81BDE8FF874FF416510160A9
:102EF00000218180C18001810C21418100218181DB
:102F0000704710B502460020108A20F470600B88CC
:102F10004C8823438C882343CC8823431843108256
:102F200010BD0021018041808180C180704721B1A6
:102F3000828942F40052828104E082894DF6FF7357
:102F40001A4082817047028B02F47F420283028B17
:102F50000A430283704721B1828942F40042828190
:102F600003E08289C2F30E028281704721B1828A16
:102F700042F40062828204E0828A4FF2FF731A40B8
:102F800082827047C1F308028280704701468888B8
:102F9000C0F308007047028A4FF6F0731A400282AD
:102FA000028A0A430282704721B1828942F00202FA
:102FB000828104E082894FF6FD731A408281704756
:102FC00082894FF2FF731A40828182890A4382818B
:102FD0007047028A4FF6DF731A400282028A0A4360
:102FE0000282704721B1028A42F48042028204E0E8
:102FF000028A4BF6FF731A4002827047818941F0C2
:1030000001018181704721B1828A42F008028282E7
:1030100004E0828A4FF6F7731A4082827047028B6F
:10302000D2B20283028B42EA01220283704721B1AD
:10303000828A42F02002828204E0828A4FF6DF73A5
:103040001A408282704721B1828A42F01002828245
:1030500004E0828A4FF6EF731A4082827047828AB8
:103060004FF6FB731A408282828A0A43828270473B
:1030700021B1828A42F00202828204E0828A4FF603
:10308000FD731A40828270471AB1838A0B43838290
:1030900002E0838A8B4383827047F0B503460024A5
:1030A00000260025002040F66A17B94200D100BF73
:1030B0001846C1F3421401F01F06012707FA06F56E
:1030C000012C01D10C3004E0022C01D1103000E0C1
:1030D00014301AB107682F43076002E00768AF4356
:1030E0000760F0BD02460020B1F5007F00D100BFAF
:1030F00013880B400BB1012000E00020704701F461
:103100000072B2F5007F00D100BFCA430280704751
:1031100070B50246002400230025002040F66A1600
:10312000B14200D100BFC1F3421501F01F030126D7
:1031300006FA03F3012D13D19689334017E00000FE
:10314000001001400044004000480040004C004096
:10315000005000400014014000780040007C004016
:10316000022D02D1168A334001E0968A33400C12B8
:10317000012606FA04F41688344013B10CB101207C
:1031800000E0002070BD10B50022002340F66A1454
:10319000A14200D100BF0A1201249440A3B2DC4333
:1031A000048010BD10B504466FF00400FDF732FF37
:1031B000E11704EB5171C1F3C701394A1170104690
:1031C000007800EB4001C1EBC0104FF6FF7101EA3F
:1031D000C0003449088010BD0146314A12784A4384
:1031E0004FF0E0235A6100229A611A46126942F0B8
:1031F00001021A6100BF4FF0E022106900F00102E5
:103200001AB100F48032002AF5D04FF0E0221269A2
:1032100022F001024FF0E0231A6100229A61704708
:103220000146204A12884A434FF0E0235A610022A7
:103230009A611A46126942F001021A6100BF4FF00A
:10324000E022106900F001021AB100F48032002A75
:10325000F5D04FF0E022126922F001024FF0E02396
:103260001A6100229A61704770B504464FF40770E6
:1032700094FBF0F0C6B24FF4077094FBF0F100FB42
:10328000114085B205E04FF40770FFF7C9FF701ECB
:10329000C6B2002EF7D115B12846FFF7C1FF70BDA9
:1032A000280000202A000020014600BF704700BF10
:1032B000F94A128802F04002002AF9D0C2B2F64B55
:1032C0009A80704710B588B0044601210846FEF781
:1032D0004FFD01211020FEF7A5FD07220921EF482F
:1032E000FEF733FB07220A21EC48FEF72EFB4FF4D2
:1032F000C060069002208DF81C008DF81D00002093
:103300008DF81E0001208DF81F0006A9E348FEF786
:1033100091FA02940020ADF80C00ADF80E00ADF863
:103320001000ADF814000C20ADF8120002A9DA4824
:10333000FFF775FD0121D848FFF7F9FD4021D64878
:10334000FFF7DDFE012240F22551D348FFF7A5FE2D
:1033500025208DF8040003208DF805008DF8060067
:1033600001208DF8070001A8FDF707FE01214804A0
:10337000FEF747FD07220221C848FEF7E6FA0722BA
:103380000321C648FEF7E1FA0C20069002208DF8D2
:103390001C008DF81D0000208DF81E0001208DF806
:1033A0001F0006A9BD48FEF745FA02940020ADF8BB
:1033B0000C00ADF80E00ADF81000ADF814000C20B4
:1033C000ADF8120002A9B648FFF729FD0121B44863
:1033D000FFF7ADFD4021B248FFF791FE012240F218
:1033E0002551AF48FFF759FE26208DF80400032031
:1033F0008DF8050002208DF8060001208DF80700E9
:1034000001A8FDF7BAFD01210220FEF7B1FC012160
:103410008804FEF7F6FC07220A21A248FEF795FA77
:1034200007220B219F48FEF790FA4FF44060069068
:1034300002208DF81C008DF81D0000208DF81E0064
:1034400001208DF81F0006A99648FEF7F3F90294B3
:103450000020ADF80C00ADF80E00ADF81000ADF88E
:1034600014000C20ADF8120002A98F48FFF7D7FC1A
:1034700001218D48FFF75BFD40218B48FFF73FFEA0
:10348000012240F225518848FFF707FE27208DF8DA
:10349000040002208DF8050001208DF806008DF84B
:1034A000070001A8FDF769FD08B010BD10B540F296
:1034B00025517948FFF72CFE00284FD07648FFF7BA
:1034C00065FDC4B27948008800F40040002845D169
:1034D0007A2C35D0764800787A2816D07348008840
:1034E000C0F30D0073490C547348007820447249AE
:1034F00008706E480088401C6C49088008460088A7
:10350000C7282BDD0020088028E0694800787A2849
:1035100024D169480078A04209D16448008840F469
:1035200000406249088001206449087002E00020E0
:103530005E49088000205E4908705F4908700DE010
:103540007A2C0BD17A205A4908705B4800787A2887
:1035500004D15948007831305749087010BD10B572
:1035600040F225514E48FFF7D3FD002848D04C4883
:10357000FFF70CFDC4B25248008800F40040002858
:103580003ED1552C0BD14F48007888B900204C49CA
:1035900008804D49087001204A49087008E0532C02
:1035A00006D148480078012802D102204549087018
:1035B0004448007820B3424800880A2810DA40487E
:1035C0000088C0F30D0041490C543F480078204466
:1035D0003D4908703A480088401C394908800FE08E
:1035E00039480078844208D10120394908703448AC
:1035F000008840F4004032490880002031490870BA
:1036000010BD10B540F225512748FFF781FD002875
:1036100078D02548FFF7BAFCC4B22E48008800F4E1
:10362000004000286ED17A2C5ED02B4800787A2892
:1036300016D028480088C0F30D0028490C542848AB
:10364000007820442649087022480088401C2149FF
:10365000088008460088C72854DD0020088051E013
:103660001D4800787A284DD11D480078A04209D124
:103670001848008840F40040164908800120194984
:10368000087002E0002013490880002012490870E9
:103690001349087036E000000010014000000240AD
:1036A0000044004000040240004800403000002078
:1036B000370000206C000020380000203600002079
:1036C000320000203A0000203B000020340100209E
:1036D00039000020340000203D000020FC010020C3
:1036E0003E0000203C0000207A2C0BD17A200649B5
:1036F0000870064800787A2804D1044800783130F0
:103700000249087010BD00003D0000203E0000206E
:103710007FB505460C4601212020FEF772FB02957D
:10372000A0B2ADF804000020ADF80600ADF80C0022
:1037300001A9CB48FEF767FD01221146C848FFF7F3
:1037400003FA37208DF8000000208DF801008DF875
:10375000020001208DF803006846FDF70EFC0121F0
:10376000BF48FEF7D9FD7FBD7FB505460C46012158
:103770000846FEF746FB0295A0B2ADF80400002013
:10378000ADF80600ADF80C0001A94FF08040FEF73F
:103790003AFD012211469007FFF7D6F9012188076B
:1037A000FEF7BAFD1C208DF8000001208DF8010005
:1037B00000208DF8020001208DF803006846FDF717
:1037C000DCFB7FBD10B50121A548FFF7D4F9012826
:1037D0000ED1A44800780B2805DAA2480078401CD6
:1037E000A049087004E001209F49087006F0D4FF4A
:1037F00001219B48FFF7D0F910BD10B52DED048BCA
:10380000002008EE100A08EE900A09EE100A0024C3
:1038100001218807FFF7AFF901283FD193480078CD
:10382000032190FBF1F201FB120060B900F0C3F933
:1038300008EE100A00F008FA08EE900A00F04CFAC0
:1038400009EE100A2AE089480078032190FBF1F282
:1038500001FB120001280CD100F0F6F908EE900AE5
:1038600000F03AFA09EE100A00F0A5F908EE100A85
:1038700014E07E480078032190FBF1F201FB120076
:1038800002280BD100F028FA09EE100A00F093F993
:1038900008EE100A00F0D8F908EE900A0121880716
:1038A000FFF77AF919EE100AC11700EB9171891030
:1038B00000EE101AB8EEC00A6D49D1ED080A30EEDC
:1038C000200A81ED080A18EE900AC11700EB9171E9
:1038D000891000EE101AB8EEC00A6549D1ED070A4A
:1038E00030EE200A81ED070A18EE100AC11700EB2E
:1038F0009171891000EE101AB8EEC00A5C49D1ED42
:10390000060A30EE200A81ED060AB8EEC80ADFED9D
:10391000590A20EE200ADFED580A20EE200A084658
:1039200080ED090AB8EEE80ADFED520A20EE200A1F
:10393000DFED510A20EE200A80ED0A0AB8EEC90A2E
:10394000DFED4C0A20EE200ADFED4B0A20EE200AC4
:1039500080ED0B0A4948007800285ED0484800886E
:1039600000F40040E8B34748C479807940EA042075
:1039700000EE100AB8EEC00ADFED430A80EE201A0E
:103980009FED420A21EE000A084680ED020A00205F
:103990003A4908703A490880354890ED020ADFED4F
:1039A0003C0A20EE200ADFED390A80EE201A90ED65
:1039B000100A31EE000A80ED020A0CE02C4890ED6E
:1039C000020ADFED330A30EE200ADFED310A30EE75
:1039D000200A80ED020A264890ED020AB5EEC00AE0
:1039E00000E01AE0F1EE10FAE8D30CE0204890ED88
:1039F000020ADFED270A30EE600ADFED250A30EE1D
:103A0000600A80ED020A1A4890ED020ADFED210AF1
:103A1000B4EEE00AF1EE10FAE8DC06F0E8FA13483A
:103A200001780078401C114A107011B904F088FF29
:103A300013E00E480078022802D105F015F80CE0DA
:103A40000A480078032802D105F011FA05E007487A
:103A50000078042801D105F00AFBBDEC048B10BDF1
:103A600000140040410000203F00002040000020E2
:103A7000D40200207CD9203EAE47E13C3900002032
:103A800032000020340100200000004700003443D1
:103A9000DB0F4940DB0FC9401CB501212020FEF798
:103AA00067F9FF20009000208DF8040003208DF8B6
:103AB000050001208DF807006946C048FDF7BAFEF1
:103AC00001210420FEF754F94FF4E050009001204A
:103AD0008DF8040000208DF8060003208DF8050005
:103AE00001208DF807006946B548FDF7A3FE0121C6
:103AF0000220FEF73DF94020009001208DF80400DF
:103B000000208DF8060003208DF8050001208DF8B7
:103B100007006946AB48FDF78DFE01214020FEF706
:103B200027F94FF46C40009001208DF8040000202C
:103B30008DF8060003208DF8050001208DF80700A0
:103B40006946A148FDF776FE1CBDA04A1268D1B2B5
:103B500008464206100E9E4AD2F81822D1B20843F7
:103B60004206100E994A083A1268D1B2084342063A
:103B7000100E974AD2F81022D1B208434206100E16
:103B8000924A103A1268D1B208434206100E904A87
:103B9000D2F80822D1B208434206100E8B4A183AD6
:103BA0001268D1B208434206100E894AD2F80022A8
:103BB000D1B20843704770B5002400250020854924
:103BC00008608549C1F8AC021420FFF705FBFFF738
:103BD000BCFF054601207F49086000207E49C1F8EE
:103BE000AC020120FFF7F8FAFFF7AFFF044601200F
:103BF0007849091D086000207749C1F8B00201200A
:103C0000FFF7EAFA0120734908310860091F0860CC
:103C100000207149C1F8B0020120FFF7DDFA012050
:103C20006C4908310860091F086000206A49C1F822
:103C3000B0020120FFF7D0FA012066490831086080
:103C400004EB052000B270BD70B5002400250020F3
:103C5000624908606249C1F8AC021420FFF7BCFA5F
:103C6000FFF773FF054601205C49086000205C49AE
:103C7000C1F8AC020120FFF7AFFAFFF766FF044678
:103C800001205649091D086000205649C1F89802D4
:103C90000120FFF7A1FA0120534908604F49091D8F
:103CA000086000204F49C1F898020120FFF794FAFC
:103CB00001204D4908604949091D08600020494913
:103CC000C1F898020120FFF787FA012046490860F1
:103CD00004EB052000B270BD70B500240025002063
:103CE0003E490C3108603E49C1F8B8021420FFF784
:103CF00073FAFFF72AFF0546012038490C310860A6
:103D000000203749C1F8B8020120FFF765FAFFF734
:103D10001CFF044601203149103108600020304961
:103D2000C1F8BC020120FFF757FA01202B491431DA
:103D30000860091F086000202949C1F8BC02012061
:103D4000FFF74AFA0120254914310860091F08606D
:103D500000202349C1F8BC020120FFF73DFA0120F1
:103D60001E491431086004EB052000B270BD10B587
:103D700000201849083108600120FFF72DFA0120C2
:103D80001549C1F8B00210BD10B5002016490860F1
:103D90000120FFF721FA01201249C1F8980210BD55
:103DA00010B500200D49143108600120FFF714FA06
:103DB00001200B49C1F8BC0210BD000000140240F4
:103DC0000008024000040240001802401C824242E7
:103DD00000804242A802414200004142A802434200
:103DE00000004342008040429882404201B5BDF845
:103DF00000000090BDF80000F749088008BD01B53B
:103E0000BDF800000090BDF80000F349891C08804F
:103E100008BD08B5F048801C00880090BDF800007F
:103E200008BD03B5BDF80000EB490880BDF80400EB
:103E30004FF0D841A1F880000CBD01B5BDF80000DD
:103E4000FFF7D4FF0520FFF7C7F9FFF7E2FF08BD32
:103E5000E2480089E04908807047DF49891C0880F2
:103E6000704730B5014601F01F04C1F34513CA0A7B
:103E7000E50205EB43151544A8B230BD00BF0100B3
:103E8000A0F10102D0B2FAD1704730B504460D4618
:103E9000D248808849F24131884205D0CF48808895
:103EA00045F21031884214D1CC494889FFF79EFF72
:103EB0002012FFF7A4FFE0B2FFF7A1FFC7498889EE
:103EC000FFF794FF2812FFF79AFFE8B2FFF797FF7A
:103ED0005DE0C248808846F6040188421DD1BF4893
:103EE0008079012804D1BD480088401E001B84B29F
:103EF000BA494889FFF77AFF2012FFF780FFE0B246
:103F0000FFF77DFFB5498889FFF770FF2812FFF79B
:103F100076FFE8B2FFF773FF39E0B048808845F2DA
:103F20001051884220D1AD494889FFF75FFF201228
:103F3000FFF765FFA9494989491C88B2FFF756FF79
:103F4000E0B2FFF75CFFA5498889FFF74FFF281211
:103F5000FFF755FFA1498989491C88B2FFF746FF41
:103F6000E8B2FFF74CFF12E09C488079012804D1A9
:103F70009A480088401E001B84B29849488921460F
:103F8000FFF74FFF954988892946FFF74AFF30BD63
:103F90003EB504460D4600200290019000908F48E7
:103FA0000088A04203DD8D484088A84201DC002043
:103FB0003EBD29462046FFF768FF8848808849F2C1
:103FC000413188420BD08548808846F604018842FA
:103FD00005D08248808845F21031884203D12E20D6
:103FE000FFF704FF0DE07D48808845F210518842BC
:103FF00004D14FF43850FFF7F9FE02E02220FFF71A
:10400000F5FE7648808849F22031884202D10220AC
:10401000FFF734FFFFF7FDFE0220FFF72FFFFFF74A
:10402000F8FE02906D48808849F2413188420BD0F9
:104030006A48808845F21031884205D067488088F8
:1040400045F21051884210D10220FFF717FFFFF709
:10405000E0FE0090BDF80800C0B20190BDF8040079
:104060004FF6FF7101EA002001905C48808849F218
:104070002531884216D05948808844F2355188420B
:1040800010D056488088091F88420BD0534880883A
:104090004BF20551884205D0504880884CF20551BA
:1040A000884202D1BDF8080082E74C48808849F276
:1040B000413188420BD04948808845F2103188420E
:1040C00005D04648808845F2105188420DD1BDF890
:1040D0000800C012C002BDF80410891240EA411065
:1040E000BDF8001040EAE12062E7BDF80800FFF7E4
:1040F000B8FE5DE700B53948808849F24131884211
:104100000BD03648808846F60401884205D03348F3
:10411000808845F21031884203D12920FFF766FEDE
:104120000FE02E48808845F21051884204D14FF4A8
:104130002450FFF75BFE04E040F273110720FFF705
:1041400070FE00BD00B52548808849F241318842A3
:104150000BD02248808846F60401884205D01F48CB
:10416000808845F21031884203D12820FFF73EFEB7
:104170000EE01A48808845F21051884204D14FF46D
:104180002050FFF733FE03E000210720FFF749FE30
:1041900000BDF0B5054600240027104880790128AD
:1041A00023D10E48808846F6040188421DD0082D90
:1041B0001AD2DFE805F00406080A0C0E15170625CA
:1041C00012E0072510E004250EE005250CE001258E
:1041D0000AE0002508E000007E00006CC402002018
:1041E000032501E0022500BF00BFFE48808849F298
:1041F0004131884211D0FB48808846F6040188424C
:104200000BD0F848808845F21031884205D0F54837
:10421000808845F2105188427ED1082D1CD2DFE8FB
:1042200005F00406090C0F12151800BF14E044F045
:10423000800411E044F040040EE044F0C0040BE0C0
:1042400044F0200408E044F0600405E044F0A004D9
:1042500002E044F0E00400BF00BFE248808845F27D
:104260001051884202D14FF4585700E03627DD48FC
:10427000808845F21031884207D0DA48808845F2BC
:104280001051884201D044F00804D648808846F690
:104290000401884201D144F0020421463846FFF768
:1042A000C0FD04F0200068B1CE480088CD4949889F
:1042B000884214DACB4806884088CA4908800846F4
:1042C00046800CE0C7480088C6494988884206DD18
:1042D000C44806884088C349088008464680C148CB
:1042E000808845F21051884254D1BE494889FFF771
:1042F0007DFD0020FFF783FDBA494989491C88B23A
:10430000FFF774FD0020FFF77AFDB6494989891C43
:1043100088B2FFF76BFD00E06BE0B2490988491EE7
:10432000C1F30F20FFF76BFDAE494989C91C88B264
:10433000FFF75CFDAB490978491EC8B2FFF75FFD86
:10434000A8498889FFF752FD0020FFF758FDA549CD
:104350008989491C88B2FFF749FD0020FFF74FFD0E
:10436000A0498989891C88B2FFF740FD9D49498889
:10437000491EC1F30F20FFF742FD9A498989C91CE4
:1043800088B2FFF733FD97498978491EC8B2FFF715
:1043900036FD55E093494889FFF728FD0020FFF7D7
:1043A0002EFD0020FFF72BFD8E490988491EC1F321
:1043B0000F20FFF724FD8B490978491EC8B2FFF78B
:1043C0001EFD88498889FFF711FD0020FFF717FDC2
:1043D0000020FFF714FD83494988491EC1F30F20CF
:1043E000FFF70DFD7F498978491EC8B2FFF707FD29
:1043F00026E0082D1CD2DFE805F004070A0D0F1295
:10440000151844F0300413E044F0100410E044F0B8
:1044100020040DE000BF0BE044F0380408E044F055
:10442000280405E044F0180402E044F0080400BF4A
:1044300000BF032744F4805421463846FFF7F1FCBF
:10444000F0BD30B504460D4629462046FFF71DFD58
:10445000FFF7FEFC644800886449088030BD70B5F1
:1044600004460D4616465F48808849F2413188422D
:1044700005D05C48808845F21031884214D15949F2
:104480004889FFF7B3FC2012FFF7B9FCE0B2FFF751
:10449000B6FC54498889FFF7A9FC2812FFF7AFFC46
:1044A000E8B2FFF7ACFC5DE04E48808845F2105161
:1044B000884220D14B494889FFF798FC2012FFF72A
:1044C0009EFC48494989491C88B2FFF78FFCE0B23D
:1044D000FFF795FC43498889FFF788FC2812FFF70E
:1044E0008EFC40498989491C88B2FFF77FFCE8B2FD
:1044F000FFF785FC36E03B48808846F60401884299
:104500001DD138488079012804D136480088401EE2
:10451000001B84B233494889FFF768FC2012FFF77B
:104520006EFCE0B2FFF76BFC2E498889FFF75EFC5A
:104530002812FFF764FCE8B2FFF761FC12E029489B
:104540008079012804D127480088401E001B84B2CE
:10455000244948892146FFF764FC22498889294675
:10456000FFF75FFC1F4800892049891E08804FF033
:10457000D840A0F8806070BD10B50446002C5AD118
:1045800018498871F02008804FF4A07048800846D0
:10459000808849F2413188420BD01248808846F623
:1045A0000401884205D00F48808845F210318842C6
:1045B00022D12C200B4908812A2048812B20888178
:1045C0000846808846F60401884205D00548808860
:1045D00045F2103188420ED14FF4A0700149088095
:1045E00006E00000C4020020420000208000006CB1
:1045F0004FF4F070488079E0FE48808845F2105111
:10460000884210D14FF43050FA4908814FF42850B5
:1046100048814FF42C5088814FF4F07008804FF49B
:104620004870488062E02220F249088120204881B9
:10463000212088815AE00120EE4988714FF4A07052
:104640000880F02048800846808849F2413188423D
:1046500005D0E848808845F21031884207D12C20E7
:10466000E44908812A2048812B2088812BE0E148F9
:10467000808846F60401884207D12C20DD49088154
:104680002B2048812A2088811DE0DA48808845F265
:104690001051884210D14FF43050D64908814FF460
:1046A000285048814FF42C5088814FF4487008807E
:1046B0004FF4F070488006E02220CE490881212086
:1046C000488120208881CB48808846F604018842B2
:1046D00005D0C848808845F21031884206D14FF491
:1046E000F070C44908804FF4A07048800020FFF7A4
:1046F00050FD10BD2DE9FF4F04460D4616461F46DE
:10470000A019401E86B2E819401E87B2B9488088B9
:1047100049F2413188420BD0B648808845F21031C9
:10472000884205D0B348808846F60401884220D1EB
:10473000B0494889FFF75AFB2012FFF760FBE0B24F
:10474000FFF75DFB3012FFF75AFBF0B2FFF757FBA4
:10475000A8498889FFF74AFB2812FFF750FBE8B207
:10476000FFF74DFB3812FFF74AFBF8B2FFF747FBA4
:104770007DE0A048808845F21051884244D19D498F
:104780004889FFF733FB2012FFF739FB9949498924
:10479000491C88B2FFF72AFBE0B2FFF730FB9549CE
:1047A0004989891C88B2FFF721FB3012FFF727FBEC
:1047B00090494989C91C88B2FFF718FBF0B2FFF78E
:1047C0001EFB8C498889FFF711FB2812FFF717FBA6
:1047D00088498989491C88B2FFF708FBE8B2FFF7CE
:1047E0000EFB84498989891C88B2FFF7FFFA3812C9
:1047F000FFF705FB7F498989C91C88B2FFF7F6FAE4
:10480000F8B2FFF7FCFA32E07A48807901280ED13D
:10481000A846B94677480088801B401E1FFA80FAD8
:1048200074480088001B401E1FFA80FB03E0A0466E
:10483000B146AA46BB465020039051200290522018
:1048400001905320009041460398FFF7EAFA494649
:104850000298FFF7E6FA51460198FFF7E2FA594647
:104860000098FFF7DEFA29462046FFF70EFBBDE869
:10487000FF8F70B5044600265E4805884088454392
:104880005C48808846F60401884216D159488079F0
:10489000012812D10020574988712A2048812B20F5
:1048A000888100210846FFF7F0FA012051498871FC
:1048B0002B2048812A20888103E000210846FFF749
:1048C000E4FAFFF7C5FA002602E04B480480761CA4
:1048D000AE42FAD370BD00B5A1B0002020900121F6
:1048E0007A20FDF745FA01210846FDF779FA4FF4E1
:1048F00000401E9001208DF87C0000208DF87E0085
:1049000002208DF87D0001208DF87F001EA93B4814
:10491000FCF790FF4CF233701E9002208DF87C0063
:1049200000208DF87E0003208DF87D0001208DF899
:104930007F001EA93248FCF77DFF4FF680701E9065
:1049400002208DF87C0000208DF87E0003208DF879
:104950007D0001208DF87F001EA92A48FCF76AFF20
:104960004FF480501E9002208DF87C0000208DF8BE
:104970007E0003208DF87D0001208DF87F001EA9A8
:104980002148FCF757FF4FF480501E9002208DF80D
:104990007C0000208DF87E0003208DF87D00012032
:1049A0008DF87F001EA91948FCF744FF0C22002156
:1049B0001348FCF7CAFF0C2201211148FCF7C5FF80
:1049C0000C2204210E48FCF7C0FF0C2205210C48E4
:1049D000FCF7BBFF0C2208210948FCF7B6FF0C22AC
:1049E00009210748FCF7B1FF0C220A210448FCF713
:1049F000ACFF0DE0C40200208000006C0004024007
:104A0000000C024000100240001402400018024056
:104A10000C220E21FE48FCF798FF0C220F21FC48C7
:104A2000FCF793FF0C220721FA48FCF78EFF0C22BB
:104A30000821F848FCF789FF0C220921F548FCF70A
:104A400084FF0C220A21F348FCF77FFF0C220B2184
:104A5000F048FCF77AFF0C221146EE48FCF775FF90
:104A60000C220D21EB48FCF770FF0C220E21E948C7
:104A7000FCF76BFF0C220F21E648FCF766FF0C22C7
:104A80001146E548FCF761FF0C221146E348FCF7AC
:104A90005CFF0F200890002009903C200A90002025
:104AA0000B900C900D900E90092001900020029028
:104AB000082003900020049005900690079006209F
:104AC0000F90002010901190102012900020139051
:104AD00015901490169017904FF480501890002065
:104AE00019904FF480401A9000201B9008A81C9049
:104AF00001A81D900FA8FCF74EFB01210620FCF732
:104B0000D5FB3220FEF7B0FB01210020FFF789F929
:104B10003220FEF7A9FB0020FFF78FF9C0498880FB
:104B200008468088FF280ADB084680884FF6FF7118
:104B3000884204D0BA488088B0F5134F7ED1D32084
:104B4000FFF754F9FFF765F9B5498880FFF761F978
:104B5000B3498880FFF75DF9B149888008468088AD
:104B60004FF6FF7101EA0020AD498880FFF751F947
:104B7000AB4989880843AA4988800846808849F259
:104B80004131884278D0BF20FFF730F9FFF741F973
:104B9000A3498880FFF73DF9A1498880FFF739F9DB
:104BA0009F498880FFF735F99D49888008468088AD
:104BB0004FF6FF7101EA002099498880FFF729F933
:104BC000974989880843964988800846808846F630
:104BD0000401884250D0D420FFF708F9FFF719F9F3
:104BE0008F498880FFF715F98D498880FFF711F903
:104BF0008B498880084680884FF6FF7101EA0020C3
:104C000087498880FFF705F98549898808438449E1
:104C100088800846808845F2103188422CD04FF4B5
:104C20005A40FFF7E3F8FFF7F4F87D4988804FF426
:104C30005B40FFF7DBF8FFF7ECF800E01CE0784999
:104C40008880084680884FF6FF7101EA0020744989
:104C500088804FF45C40FFF7C9F8FFF7DAF8704935
:104C6000898808436E49888008468088B0F5004FDF
:104C700002D145F2105088806948808849F241315C
:104C800088420BD06648808845F21031884205D0B2
:104C90006348808845F2105188421DD16148006800
:104CA00020F00F004FF02041C1F81C010846D0F859
:104CB0001C0120F47060C1F81C010846D0F81C01EA
:104CC00040F00300C1F81C010846D0F81C0140F474
:104CD0000070C1F81C0128E05148808846F60401A4
:104CE000884205D04E4880884CF2055188421CD13C
:104CF0004C48006820F00F004FF02041C1F81C0123
:104D00000846D0F81C0120F47060C1F81C01084668
:104D1000D0F81C0140F00A00C1F81C010846D0F888
:104D20001C0140F44060C1F81C013D4881883EA050
:104D30000CF0E8FC3A48808849F2413188427BD146
:104D4000CF20FFF753F80020FFF759F82098401CB8
:104D50002090C120FFF753F83020FFF750F8ED20E6
:104D6000FFF744F86420FFF74AF80320FFF747F8FD
:104D70001220FFF744F88120FFF741F8E820FFF701
:104D800035F88520FFF73BF81020FFF738F87A2038
:104D9000FFF735F8CB20FFF729F83920FFF72FF878
:104DA0002C20FFF72CF80020FFF729F83420FFF71C
:104DB00026F80220FFF723F8F720FFF717F8202046
:104DC000FFF71DF8EA20FFF711F80020FFF717F8AA
:104DD0000020FFF714F8C020FFF708F81B20FFF7AA
:104DE0000EF8C120FFF702F80120FFF708F8C520F0
:104DF000FEF7FCFF3020FFF702F83020FEF7FFFF40
:104E0000C720FEF7F3FFB720FEF7F9FF362014E0C6
:104E1000000C024000100240001402400018024042
:104E2000C40200201C0100A0204C43442049443A05
:104E300025780D0A00000000B1E0FEF7D7FF4820FA
:104E4000FEF7DDFF3A20FEF7D1FF5520FEF7D7FF32
:104E5000B120FEF7CBFF0020FEF7D1FF1A20FEF7AE
:104E6000CEFFB620FEF7C2FF0A20FEF7C8FFA22041
:104E7000FEF7C5FFF220FEF7B9FF0020FEF7BFFFE7
:104E80002620FEF7B3FF0120FEF7B9FFE020FEF772
:104E9000ADFF0F20FEF7B3FF2A20FEF7B0FF28205A
:104EA000FEF7ADFF0820FEF7AAFF0E20FEF7A7FFD2
:104EB0000820FEF7A4FF5420FEF7A1FFA920FEF76B
:104EC0009EFF4320FEF79BFF0A20FEF798FF0F206E
:104ED000FEF795FF0020FEF792FF0020FEF78FFF00
:104EE0000020FEF78CFF0020FEF789FFE120FEF78F
:104EF0007DFF0020FEF783FF1520FEF780FF1720BF
:104F0000FEF77DFF0720FEF77AFF1120FEF777FFFF
:104F10000620FEF774FF2B20FEF771FF5620FEF7E8
:104F20006EFF3C20FEF76BFF0520FEF768FF1020A8
:104F3000FEF765FF0F20FEF762FF3F20FEF75FFFE1
:104F40003F20FEF75CFF0F20FEF759FF2B20FEF7F6
:104F50004DFF0020FEF753FF0020FEF750FF012019
:104F6000FEF74DFF3F20FEF74AFF2A20FEF73EFFE7
:104F70000020FEF744FF0020FEF741FF0020FEF76F
:104F80003EFFEF20FEF73BFF1120FEF72FFF7820BA
:104F9000FEF76AF92920FEF729FF03F05CB8FE4806
:104FA000808846F6040188427ED11120FEF71EFF5C
:104FB0001420FEF759F9D020FEF718FF0720FEF75E
:104FC0001EFF4220FEF71BFF1D20FEF718FFD12019
:104FD000FEF70CFF0020FEF712FF1A20FEF70FFF6E
:104FE0000920FEF70CFFD220FEF700FF0120FEF79C
:104FF00006FF2220FEF703FFC020FEF7F7FE102079
:10500000FEF7FDFE3B20FEF7FAFE0020FEF7F7FE5E
:105010000220FEF7F4FE1120FEF7F1FEC520FEF798
:10502000E5FE0320FEF7EBFEC820FEF7DFFE0020C2
:10503000FEF7E5FE2520FEF7E2FE2120FEF7DFFE6B
:105040000520FEF7DCFE0020FEF7D9FE0A20FEF761
:10505000D6FE6520FEF7D3FE2520FEF7D0FE772092
:10506000FEF7CDFE5020FEF7CAFE0F20FEF7C7FE6A
:105070000020FEF7C4FEF820FEF7B8FE0120FEF780
:10508000BEFEFE20FEF7B2FE0020FEF7B8FE0220B4
:10509000FEF7B5FE2020FEF7A9FE3620FEF7A6FE9D
:1050A0000820FEF7ACFE00E02AE03A20FEF79EFE64
:1050B0005520FEF7A4FE2B20FEF798FE0020FEF7F9
:1050C0009EFE0020FEF79BFE0120FEF798FE3F208B
:1050D000FEF795FE2A20FEF789FE0020FEF78FFEE0
:1050E0000020FEF78CFE0120FEF789FEDF20FEF790
:1050F00086FE7820FEF7B8F82920FEF777FE4CE709
:10510000A548808845F21031884240F07C87ED2028
:10511000FEF76CFE0120FEF772FEFE20FEF76FFE2A
:10512000EE20FEF763FEDE20FEF769FE2120FEF78B
:1051300066FEF120FEF75AFE0120FEF760FEDF203A
:10514000FEF754FE1020FEF75AFEC420FEF74EFE76
:105150008F20FEF754FEC620FEF748FE0020FEF723
:105160004EFEE220FEF74BFEE220FEF748FEE22074
:10517000FEF745FEBF20FEF739FEAA20FEF73FFEF0
:10518000B020FEF733FE0D20FEF739FE0020FEF7BB
:1051900036FE0D20FEF733FE0020FEF730FE112014
:1051A000FEF72DFE0020FEF72AFE1920FEF727FE4F
:1051B0000020FEF724FE2120FEF721FE0020FEF74E
:1051C0001EFE2D20FEF71BFE0020FEF718FE3D20E0
:1051D000FEF715FE0020FEF712FE5D20FEF70FFE23
:1051E0000020FEF70CFE5D20FEF709FE0020FEF712
:1051F00006FEB120FEF7FAFD8020FEF700FE00203B
:10520000FEF7FDFD8B20FEF7FAFD0020FEF7F7FD0F
:105210009620FEF7F4FD0020FEF7F1FDB220FEF728
:10522000E5FD0020FEF7EBFD0020FEF7E8FD022083
:10523000FEF7E5FD0020FEF7E2FD0320FEF7DFFDAF
:105240000020FEF7DCFDB320FEF7D0FD0020FEF7C6
:10525000D6FD0020FEF7D3FD0020FEF7D0FD002094
:10526000FEF7CDFD0020FEF7CAFD0020FEF7C7FDCA
:105270000020FEF7C4FD0020FEF7C1FD0020FEF770
:10528000BEFD0020FEF7BBFD0020FEF7B8FD0020AC
:10529000FEF7B5FD0020FEF7B2FD0020FEF7AFFDE2
:1052A0000020FEF7ACFD0020FEF7A9FD0020FEF770
:1052B000A6FD0020FEF7A3FD0020FEF7A0FD0020C4
:1052C000FEF79DFD0020FEF79AFD0020FEF797FDFA
:1052D0000020FEF794FD0020FEF791FDB420FEF7BC
:1052E00085FD8B20FEF78BFD0020FEF788FD9620C4
:1052F000FEF785FD0020FEF782FDA120FEF77FFD71
:105300000020FEF77CFDB520FEF770FD0220FEF7C1
:1053100076FD0020FEF773FD0320FEF770FD0020F0
:10532000FEF76DFD0420FEF76AFD0020FEF767FD25
:10533000B620FEF75BFD0020FEF761FD0020FEF7C2
:105340005EFDB720FEF752FD0020FEF758FD00205D
:10535000FEF755FD3F20FEF752FD0020FEF74FFD02
:105360005E20FEF74CFD0020FEF749FD6420FEF7AD
:1053700046FD0020FEF743FD8C20FEF740FD002097
:10538000FEF73DFDAC20FEF73AFD0020FEF737FDAD
:10539000DC20FEF734FD01E0C40200200020FEF70F
:1053A0002EFD7020FEF72BFD0020FEF728FD90203B
:1053B000FEF725FD0020FEF722FDEB20FEF71FFD86
:1053C0000020FEF71CFDDC20FEF719FD0020FEF793
:1053D00016FDB820FEF70AFD0020FEF710FD0020A4
:1053E000FEF70DFD0020FEF70AFD0020FEF707FD89
:1053F0000020FEF704FD0020FEF701FD0020FEF76F
:10540000FEFC0020FEF7FBFCBA20FEF7EFFC242098
:10541000FEF7F5FC0020FEF7F2FC0020FEF7EFFCA3
:105420000020FEF7ECFCC120FEF7E0FC2020FEF798
:10543000E6FC0020FEF7E3FC5420FEF7E0FC002031
:10544000FEF7DDFCFF20FEF7DAFC0020FEF7D7FCBC
:10545000C220FEF7CBFC0A20FEF7D1FC0020FEF7AD
:10546000CEFC0420FEF7CBFC0020FEF7C8FCC320D6
:10547000FEF7BCFC3C20FEF7C2FC0020FEF7BFFCA0
:105480003A20FEF7BCFC0020FEF7B9FC3920FEF7FD
:10549000B6FC0020FEF7B3FC3720FEF7B0FC00207E
:1054A000FEF7ADFC3C20FEF7AAFC0020FEF7A7FCAF
:1054B0003620FEF7A4FC0020FEF7A1FC3220FEF708
:1054C0009EFC0020FEF79BFC2F20FEF798FC00209E
:1054D000FEF795FC2C20FEF792FC0020FEF78FFCD7
:1054E0002920FEF78CFC0020FEF789FC2620FEF721
:1054F00086FC0020FEF783FC2420FEF780FC0020C1
:10550000FEF77DFC2420FEF77AFC0020FEF777FCF6
:105510002320FEF774FC0020FEF771FC3C20FEF710
:105520006EFC0020FEF76BFC3620FEF768FC0020C6
:10553000FEF765FC3220FEF762FC0020FEF75FFC00
:105540002F20FEF75CFC0020FEF759FC2C20FEF714
:1055500056FC0020FEF753FC2920FEF750FC0020EB
:10556000FEF74DFC2620FEF74AFC0020FEF747FC24
:105570002420FEF744FC0020FEF741FC2420FEF727
:105580003EFC0020FEF73BFC2320FEF738FC002009
:10559000FEF735FCC420FEF729FC6220FEF72FFC45
:1055A0000020FEF72CFC0520FEF729FC0020FEF76A
:1055B00026FC8420FEF723FC0020FEF720FCF020D0
:1055C000FEF71DFC0020FEF71AFC1820FEF717FC62
:1055D0000020FEF714FCA420FEF711FC0020FEF7CB
:1055E0000EFC1820FEF70BFC0020FEF708FC5020F4
:1055F000FEF705FC0020FEF702FC0C20FEF7FFFB87
:105600000020FEF7FCFB1720FEF7F9FB0020FEF759
:10561000F6FB9520FEF7F3FB0020FEF7F0FBF320EE
:10562000FEF7EDFB0020FEF7EAFBE620FEF7E7FBC6
:105630000020FEF7E4FBC520FEF7D8FB3220FEF782
:10564000DEFB0020FEF7DBFB4420FEF7D8FB00204A
:10565000FEF7D5FB6520FEF7D2FB0020FEF7CFFB5F
:105660007620FEF7CCFB0020FEF7C9FB8820FEF772
:10567000C6FB0020FEF7C3FBC620FEF7B7FB2020C9
:10568000FEF7BDFB0020FEF7BAFB1720FEF7B7FBC5
:105690000020FEF7B4FB0120FEF7B1FB0020FEF76F
:1056A000AEFBC720FEF7A2FB0020FEF7A8FB002000
:1056B000FEF7A5FB0020FEF7A2FB0020FEF79FFBF4
:1056C000C820FEF793FB0020FEF799FB0020FEF7B1
:1056D00096FB0020FEF793FB0020FEF790FBC9200D
:1056E000FEF784FB0020FEF78AFB0020FEF787FB15
:1056F0000020FEF784FB0020FEF781FB0020FEF770
:105700007EFB0020FEF77BFB0020FEF778FB0020ED
:10571000FEF775FB0020FEF772FB0020FEF76FFB23
:105720000020FEF76CFB0020FEF769FB0020FEF76F
:1057300066FB0020FEF763FB0020FEF760FB002005
:10574000FEF75DFBE020FEF751FB1620FEF757FB4E
:105750000020FEF754FB1C20FEF751FB0020FEF753
:105760004EFB2120FEF74BFB0020FEF748FB3620C6
:10577000FEF745FB0020FEF742FB4620FEF73FFB0D
:105780000020FEF73CFB5220FEF739FB0020FEF71D
:1057900036FB6420FEF733FB0020FEF730FB7A2057
:1057A000FEF72DFB0020FEF72AFB8B20FEF727FBE0
:1057B0000020FEF724FB9920FEF721FB0020FEF7D6
:1057C0001EFBA820FEF71BFB0020FEF718FBB920EC
:1057D000FEF715FB0020FEF712FBC420FEF70FFBBF
:1057E0000020FEF70CFBCA20FEF709FB0020FEF7A5
:1057F00006FBD220FEF703FB0020FEF700FBD920BA
:10580000FEF7FDFA0020FEF7FAFAE020FEF7F7FABD
:105810000020FEF7F4FAF320FEF7F1FA0020FEF77D
:10582000EEFAE120FEF7E2FA1620FEF7E8FA002091
:10583000FEF7E5FA1C20FEF7E2FA0020FEF7DFFA99
:105840002220FEF7DCFA0020FEF7D9FA3620FEF718
:10585000D6FA0020FEF7D3FA4520FEF7D0FA002052
:10586000FEF7CDFA5220FEF7CAFA0020FEF7C7FA7B
:105870006420FEF7C4FA0020FEF7C1FA7A20FEF792
:10588000BEFA0020FEF7BBFA8B20FEF7B8FA002024
:10589000FEF7B5FA9920FEF7B2FA0020FEF7AFFA4C
:1058A000A820FEF7ACFA0020FEF7A9FAB920FEF70F
:1058B000A6FA0020FEF7A3FAC420FEF7A0FA002003
:1058C000FEF79DFACA20FEF79AFA0020FEF797FA33
:1058D000D220FEF794FA0020FEF791FAD820FEF7C6
:1058E0008EFA0020FEF78BFAE020FEF788FA0020FF
:1058F000FEF785FAF320FEF782FA0020FEF77FFA22
:10590000E220FEF773FA0520FEF779FA0020FEF791
:1059100076FA0B20FEF773FA0020FEF770FA1B20D0
:10592000FEF76DFA0020FEF76AFA3420FEF767FAF8
:105930000020FEF764FA4420FEF761FA0020FEF72B
:105940005EFA4F20FEF75BFA0020FEF758FA61205E
:10595000FEF755FA0020FEF752FA7920FEF74FFACB
:105960000020FEF74CFA8820FEF749FA0020FEF7E7
:1059700046FA9720FEF743FA0020FEF740FAA620E9
:10598000FEF73DFA0020FEF73AFAB720FEF737FAA5
:105990000020FEF734FAC220FEF731FA0020FEF7AD
:1059A0002EFAC720FEF72BFA0020FEF728FAD120A6
:1059B000FEF725FA0020FEF722FAD620FEF71FFA9E
:1059C0000020FEF71CFADD20FEF719FA0020FEF792
:1059D00016FAF320FEF713FA0020FEF710FAE32080
:1059E000FEF704FA0520FEF70AFA0020FEF707FA90
:1059F0000A20FEF704FA0020FEF701FA1C20FEF749
:105A0000FEF90020FEF7FBF93320FEF7F8F900203D
:105A1000FEF7F5F94420FEF7F2F90020FEF7EFF962
:105A20005020FEF7ECF90020FEF7E9F96220FEF7BE
:105A3000E6F90020FEF7E3F97820FEF7E0F9002010
:105A4000FEF7DDF98820FEF7DAF90020FEF7D7F936
:105A50009720FEF7D4F90020FEF7D1F9A620FEF733
:105A6000CEF90020FEF7CBF9B720FEF7C8F90020E9
:105A7000FEF7C5F9C220FEF7C2F90020FEF7BFF914
:105A8000C720FEF7BCF90020FEF7B9F9D120FEF7D8
:105A9000B6F90020FEF7B3F9D520FEF7B0F90020E3
:105AA000FEF7ADF9DD20FEF7AAF90020FEF7A7F911
:105AB000F320FEF7A4F90020FEF7A1F9E420FEF799
:105AC00095F90120FEF79BF90020FEF798F90120D7
:105AD000FEF795F90020FEF792F90220FEF78FF904
